:100000008FEF00F0949C8B9C080E016E00D00000D6
:10001000018E0ED0019E1432D8B08B8CD8A08B9C50
:10002000018C06D0019C012EF6D700D000008B8CED
:10003000020E006EE96AE92EFED7002EFBD700D033
:1000400001BEE8D701BCEED71200EACF13F0E9CF2A
:1000500012F00C38F0090E6E0E26E20F0F6E320F02
:10006000116E0C500F0B0F260F261126E90F106E84
:10007000102610260B380F0B1026112610361136BD
:10008000111E11360B500F0B11260E36070E0D6E7A
:100090000A0E10061126FDE30F061026FDE30E06DC
:1000A0000F26FDE30D060E26FDE3EA6A0D0EE96E4E
:1000B000070E1214129CE926110EE95CD8B4128CBA
:1000C000EF50006E08E112BC06D012B813D012B681
:1000D00002D0200E03D012861298300E0026EACFEE
:1000E0000CF0E9CF0BF000C014F08CDF0CC0EAFF7D
:1000F0000BC0E9FFEE5012ACDFD7EFEF00F0010EBE
:100100000C5E0CE3EA6A0C0EE96EEF5007E0030E9A
:10011000006E002EFED700D0EF2EF9D71200F86A3D
:10012000D09EEA6AE96A949C8B8C010E046E056A83
:10013000880E076EB80E066E096A086A0A900A925F
:10014000000E7E6EC198C19A7F50E00B7F6E799A47
:1001500079987A6A7B6A94948B940C0EBD6EB76A18
:10016000B66A010EB96E000E0409CA6EFA0ECB6EA5
:100170007F0EBE6ED89004360450080802E1010ECE
:10018000046E956A04C08CFF07500E0814E2FF0A43
:1001900003E10650A0080FE2938281B208D00AA0C2
:1001A00006D00A90F40E065E010E075A04D0938220
:1001B00081A201D00A800650085C03E10750095C67
:1001C0000EE007C009F006C008F00C0E146E1ADF2E
:1001D000100EE96E07C00CF006C00BF036D707C052
:1001E0000BF00B2A0B06D8B403D00C6888DFFAD7C3
:0E01F00006C00CF084DFBED7000E016E0300C7
:020000040030CA
:0E00000000C61E1E008F81000FC00FE00F40D3
:00000001FF
;PIC18F45K20
;CRC=47DC  CREATED="10-fev-14 16:23"
