:0400000004EF01F018
:08000800046ED8CF05F0E0CF33
:1000100006F00001E9CF0CF0EACF07F0E1CF08F0DD
:10002000E2CF09F0D9CF0AF0DACF0BF0F3CF12F01C
:10003000F4CF13F0FACF14F0F5CF15F0F6CF16F099
:10004000F7CF17F000C00EF001C00FF002C010F0A3
:1000500003C011F0F2A830EF00F0F2B257EF00F059
:100060000EC000F00FC001F010C002F011C003F08C
:100070000CC0E9FF07C0EAFF078E08C0E1FF09C016
:10008000E2FF0AC0D9FF0BC0DAFF12C0F3FF13C0B2
:10009000F4FF14C0FAFF15C0F5FF16C0F6FF17C035
:1000A000F7FF045006C0E0FF05C0D8FF1000F29231
:1000B0000A0E195E195202E1640E196E1A80F2924C
:1000C00030EF00F0EA6A1C0EE96EEF500EE0130EFE
:1000D000016E006A002EFED7012EFBD7730E006E54
:1000E000002EFED70000EF2EF2D721EF01F0949CF6
:1000F0008B9C080E016E00D00000018E0ED0019E78
:100100002232D8B08B8CD8A08B9C018C06D0019C5D
:10011000012EF6D700D000008B8C020E006EE96A2B
:10012000E92EFED7002EFBD700D001BEE8D701BCD8
:10013000EED712002350016A225C03E222C000F0D5
:100140000CD0006A080E246E223600362350005C64
:10015000D8B0006E0136242EF7D71200200E1DA84D
:10016000300E1E6E1CC000F01CAE08D0001E002A0F
:1001700000C01CF02D0E1E6E1D8E1D8001501CC077
:1001800022F0640E236ED6DF00C01CF0300E012476
:100190001F6E1CC022F00A0E236ECCDF300E00242E
:1001A000216E300E0124206E1EC000F0300E1F5C48
:1001B00004E01D821DBE1D8412D01EC01FF0200E43
:1001C0001E6E300E205C04E01D801DBE1D8207D017
:1001D000D8A41D8004E11FC020F0200E1F6E1DB4A6
:1001E00005D01DB206D01DB007D009D01EC022F028
:1001F0007EDF1FC022F07BDF20C022F078DF21C02D
:1002000022F075DF41EF01F0F86AD09E078EEA6AAE
:10021000E96A949C8B8C640E196E1A90000E7E6EA7
:10022000C198C19A7F50E00B7F6E799A79987A6A6B
:100230007B6A956A8C6AF292D00EF21219C01CF099
:1002400041D71B501B2A000A05E0010A07E0030AF8
:1002500009E00CD0956A110E8C6E08D0956A220EBA
:100260008C6E04D0956A0C0E8C6E1B6A1AA009D095
:100270001A900C0E226E3BDF19C01CF0180E1D6E7A
:0A0280006DD7DCD7000E016E0300FD
:020000040030CA
:0E00000000C61E1E008F81000FC00FE00F40D3
:00000001FF
;PIC18F45K20
;CRC=9CCA  CREATED="12-fev-14 17:04"
