:0400000026EF01F0F6
:08000800046ED8CF05F0E0CF33
:1000100006F00001E9CF0CF0EACF07F0E1CF08F0DD
:10002000E2CF09F0D9CF0AF0DACF0BF0F3CF12F01C
:10003000F4CF13F0FACF14F0F5CF15F0F6CF16F099
:10004000F7CF17F000C00EF001C00FF002C010F0A3
:1000500003C011F0F2A830EF00F0F2B26BEF00F045
:100060000EC000F00FC001F010C002F011C003F08C
:100070000CC0E9FF07C0EAFF078E08C0E1FF09C016
:10008000E2FF0AC0D9FF0BC0DAFF12C0F3FF13C0B2
:10009000F4FF14C0FAFF15C0F5FF16C0F6FF17C035
:1000A000F7FF045006C0E0FF05C0D8FF1000EA6A61
:1000B000270EE96EEF500DE00A0E016E006A002E69
:1000C000FED7012EFBD75F0E006E002EFED7EF2E5F
:1000D000F3D76EEF00F0640E276EE9D7F292E80EC8
:1000E000195E030E1A5A1950E80807E11A5003085E
:1000F00004E1FD0E1A6EE80E196E1C80F29230EFCC
:1001000000F00C48656C6C6F0000949C8B9C080E92
:10011000016E00D00000018E0ED0019E2632D8B0B4
:100120008B8CD8A08B9C018C06D0019C012EF6D71D
:1001300000D000008B8C010E006EE96AE92EFED71C
:10014000002EFBD70E0EE96EE92EFED7000001BE91
:10015000E4D701BCEAD712000900F5520CE0F6CF53
:100160001DF0F7CF1EF0F5CF26F0CFDF1DC0F6FF54
:100170001EC0F7FFF1D743EF01F0020E1E5E0BE346
:10018000EA6A1E0EE96EEF5006E003D000D000D000
:100190000000EF2EFBD71200EACF25F0E9CF24F0C4
:1001A0001E38F009206E2026E20F216E320F236EDA
:1001B0001E500F0B212621262326E90F226E222610
:1001C00022261D380F0B2226232622362336231EF5
:1001D00023361D500F0B23262036070E1F6E0A0EE6
:1001E00022062326FDE321062226FDE32006212602
:1001F000FDE31F062026FDE3EA6A1F0EE96E070EE7
:100200002414249CE926230EE95CD8B4248CEF50F6
:10021000006E08E124BC06D024B813D024B602D066
:10022000200E03D024862498300E0026EACF1EF03C
:10023000E9CF1DF000C026F068DF1EC0EAFF1DC038
:10024000E9FFEE5024ACDFD763EF01F0F86AD09EEF
:10025000078EEA6AE96A949C8B8CFD0E1A6EE80E92
:10026000196E010E1B6E1C801C82C180C182C1846C
:10027000C196946A8B6AD00EF212F19C020EF66E51
:10028000010EF76E69D7D8901B361B50080802E1A3
:10029000010E1B6E946A1BC08BFF1AC01DF01D2A35
:1002A0001D06D8B403D01E6868DFFAD719C01EF047
:1002B00064DF1CA00ED01C90100EE96E1AC01EF058
:1002C00019C01DF069D70D0E266E1FDF0A0E266EAF
:0A02D0001CDFD9D7000E016E0300F9
:020000040030CA
:0E00000000260E0E000181000FC00FE00F4021
:00000001FF
;PIC18F452
;CRC=26D7  CREATED="24-fev-14 07:57"
