:04000000A1EF02F07A
:08000800046ED8CF05F0E0CF33
:1000100006F00001E9CF0CF0EACF07F0E1CF08F0DD
:10002000E2CF09F0D9CF0AF0DACF0BF0F3CF12F01C
:10003000F4CF13F0FACF14F0F5CF15F0F6CF16F099
:10004000F7CF17F000C00EF001C00FF002C010F0A3
:1000500003C011F0F2AA30EF00F0F2B486EF00F026
:10006000F2A836EF00F0F2B270EF00F00EC000F030
:100070000FC001F010C002F011C003F00CC0E9FF86
:1000800007C0EAFF078E08C0E1FF09C0E2FF0AC00F
:10009000D9FF0BC0DAFF12C0F3FF13C0F4FF14C086
:1000A000FAFF15C0F5FF16C0F6FF17C0F7FF0450A2
:1000B00006C0E0FF05C0D8FF1000EA6A3C0EE96EFA
:1000C000EF500DE00A0E016E006A002EFED7012EE1
:1000D000FBD75F0E006E002EFED7EF2EF3D7120077
:1000E000640E3C6EEADFF292C40E1B26090E1C223F
:1000F0001B50600807E11C50EA0804E13C0E1C6E2E
:10010000AF0E1B6E1D80F29236EF00F0F2941CC011
:10011000D7FF1BC0D6FFD8901A361A50080802E144
:10012000010E1A6E946A1AC08BFFF29436EF00F03B
:100130000C48656C6C6F0000743A20252E33660005
:10014000949C8B9C080E016E00D00000018E0ED096
:10015000019E2F32D8B08B8CD8A08B9C018C06D0FE
:10016000019C012EF6D700D000008B8C010E006E92
:10017000E96AE92EFED7002EFBD70E0EE96EE92EB6
:10018000FED7000001BEE4D701BCEAD71200090087
:10019000F5520CE0F6CF1EF0F7CF1FF0F5CF2FF0A1
:1001A000CFDF1EC0F6FF1FC0F7FFF1D7C4EF02F08C
:1001B0008E0E006E21C001F020C002F0036A0152D1
:1001C00009E102C001F0026A080E005E015202E17C
:1001D000006A08D0D89001BE04D00236013600066D
:1001E000F9D7019EDEEF02F02F50D8B471D0006E27
:1001F0003350D8B46DD0002604E3810E002668E2A7
:1002000004D07F0E005E64E363E030C037F034500A
:10021000371A308E348E32503602F4CF39F03150E6
:100220003502F4CF03F0F3CF38F03602F35039261D
:10023000F4503822000E032232503502F350392692
:10024000F4503822000E026A032202223050360295
:10025000F3503826F4500322000E022230503502AB
:10026000F3500326F4500222000E016A012232509C
:100270003402F3503826F4500322000E02220122E9
:1002800031503402F3500326F4500222000E0122B2
:1002900030503402F3500226F4500122002A01BEED
:1002A00005D038360336023601360006000E38AE69
:1002B0000AD0032A02220122015005E1025003E183
:1002C000035001E1002A37BE018E37AE019E04D0F3
:1002D000006A016A026A036A12000900F6CF23F07D
:1002E000F7CF24F0F5CF2FF02BDF23C0F6FF24C08B
:1002F000F7FF222EF2D7FEEF02F02F50B6082F6E36
:10030000036A30C033F0308ED8903032313232321E
:1003100003320232013200322F2EF6D733AE0BD029
:10032000001E011E021E031E002AD8B4012AD8B4E2
:10033000022AD8B4032A0BEF02F0D8B203D0EA6A3B
:10034000370EE96E006A016A026A036A376A386A20
:10035000396A3A6A36503510341033102CE0200ECA
:100360003B6ED8902F363036313632363736383607
:1003700039363A3636503A5C08E13550395C05E199
:100380003450385C02E13350375C0FE33350375E52
:100390003450D8A0343C385E3550D8A0353C395E56
:1003A0003650D8A0363C3A5ED88000360136023648
:1003B00003363B2ED6D737C0EFFF38C0ECFF39C02D
:1003C000ECFF3AC0ECFF1200E950276E2650296E70
:1003D00019E025C032F024C031F023C030F022C033
:1003E0002FF0366A356A200E346E820E336EFCDED4
:1003F00003C025F002C024F001C023F000C022F0A9
:10040000292EE7D725C032F024C031F023C030F0C8
:1004100022C02FF072D703C025F002C024F001C023
:1004200023F000C022F025AE0DD02706278A221E19
:10043000231E241E251E222AD8B4232AD8B4242AF7
:10044000D8B4252A3B0E2E6E9A0E2D6ECA0E2C6E37
:100450002B6A0A0E296E2650D8B4272AD882EA6A57
:10046000220EE96E25C032F024C031F023C030F0F6
:1004700022C02FF02EC036F02DC035F02CC034F045
:100480002BC033F05ADF015000520FE12628295CBF
:100490000CE027500CE00F0B295C01E037E227BE8F
:1004A00035D027BC04D0200E2DD0200E271627AA29
:1004B0000CD0279A2650D8A427060050276E2D0E60
:1004C0002F6E3EDE2750006E276A2650295C0AE117
:1004D0000050276E2E0E2F6E33DE2750006E200E3A
:1004E0002716000E300E27AA0DD0279A2650D8A422
:1004F00027060050276E2D0E2F6E22DE2750006E2D
:10050000276A300E002600C02FF01ADED8922EC0C7
:1005100032F02DC031F02CC030F02BC02FF0366AF5
:10052000356A346A0A0E336E08DF03C02EF002C04B
:100530002DF001C02CF000C02BF0292E8FD70BEF2F
:1005400003F0F86AD09E078EEA6AE96A949C8B8C65
:10055000010E1A6E3C0E1C6EAF0E1B6E1D80C1800C
:10056000C182C184C196946A8B6AF292F2941CC0D3
:10057000D7FF1BC0D6FF830ED56EF00EF212300EE1
:10058000F66E010EF76E03D61DA045D01D900C0E21
:100590002F6ED6DD196AF2BE198EF29E0A0E3C6EDF
:1005A0008CDD19BEF28EFF0ED8801B541E6EFF0E1E
:1005B0001C541F6E216E1EC020F0FAD503C032F00D
:1005C00002C031F001C030F000C02FF0BD0E366E19
:1005D000370E356E060E346E6C0E336E05DE00C0BF
:1005E0001EF001C01FF002C020F003C021F0380E41
:1005F000F66E010EF76E030E226E6FD6890EE96E4F
:1006000021C025F020C024F01FC023F01EC022F01E
:0E061000030E266ED9D6B8D7000E016E030079
:020000040030CA
:0E00000000260E0E000181000FC00FE00F4021
:00000001FF
;PIC18F452
;CRC=D480  CREATED="19-fev-14 16:30"
