:04000000F3EF00F02A
:08000800046ED8CF05F0E0CF33
:1000100006F00001E9CF0CF0EACF07F0E1CF08F0DD
:10002000E2CF09F0D9CF0AF0DACF0BF0F3CF12F01C
:10003000F4CF13F0FACF14F0F5CF15F0F6CF16F099
:10004000F7CF17F000C00EF001C00FF002C010F0A3
:1000500003C011F0F2A830EF00F0F2B257EF00F059
:100060000EC000F00FC001F010C002F011C003F08C
:100070000CC0E9FF07C0EAFF078E08C0E1FF09C016
:10008000E2FF0AC0D9FF0BC0DAFF12C0F3FF13C0B2
:10009000F4FF14C0FAFF15C0F5FF16C0F6FF17C035
:1000A000F7FF045006C0E0FF05C0D8FF1000F29231
:1000B000E80E1B5E030E1C5A1B501C1004E1FD0EC3
:1000C0001C6EE80E1B6EF29230EF00F0949C8B9C3D
:1000D000080E016E00D00000018E0ED0019E293264
:1000E000D8B08B8CD8A08B9C018C06D0019C012EA3
:1000F000F6D700D000008B8C020E006EE96AE92E64
:10010000FED7002EFBD700D001BEE8D701BCEED74A
:100110001200EACF28F0E9CF27F02138F009236E4A
:100120002326E20F246E320F266E21500F0B242659
:1001300024262626E90F256E2526252620380F0B96
:100140002526262625362636261E263620500F0B37
:1001500026262336070E226E0A0E25062626FDE3E6
:1001600024062526FDE323062426FDE32206232676
:10017000FDE3EA6A220EE96E070E2714279CE926A2
:10018000260EE95CD8B4278CEF50006E08E127BC3E
:1001900006D027B813D027B602D0200E03D027866A
:1001A0002798300E0026EACF21F0E9CF20F000C0DA
:1001B00029F08CDF21C0EAFF20C0E9FFEE5027AC18
:1001C000DFD762EF01F0010E215E0CE3EA6A210E37
:1001D000E96EEF5007E0030E006E002EFED700D050
:1001E000EF2EF9D71200F86AD09E078EEA6AE96A04
:1001F000949C8B8C010E196E1A6A880E1C6EB80EB8
:100200001B6E1E6A1D6A1F901F92000E7E6EC198A3
:10021000C19A7F50E00B7F6E799A79987A6A7B6AEF
:10022000F292F288C00EF21294948B940C0EBD6E72
:10023000B76AB66A010EB96E000E0409CA6EFA0EEC
:10024000CB6E7F0EBE6ED89019361950080802E1A9
:10025000010E196E956A19C08CFF1B50200803E12E
:100260001C504E081BE0938281B215D01FA013D002
:100270001F901C5074080AE2FF0A03E11B5030086B
:1002800005E2E80E1B5E030E1C5A04D0640E1B5ED2
:10029000000E1C5A03D01FB001D01F801B501D5CE4
:1002A00003E11C501E5C0EE01CC01EF01BC01DF0C4
:1002B0000C0E296E0BDF100EE96E1CC021F01BC066
:1002C00020F027D71CC020F0202A2006D8B403D065
:1002D000216879DFFAD71BC021F075DFB4D7000E93
:0402E000016E0300A8
:020000040030CA
:0E00000000C61E1E008F81000FC00FE00F40D3
:00000001FF
;PIC18F45K20
;CRC=D0C3  CREATED="10-fev-14 16:05"
