:040000001BEF01F001
:08000800046ED8CF05F0E0CF33
:1000100006F00001E9CF0CF0EACF07F0E1CF08F0DD
:10002000E2CF09F0D9CF0AF0DACF0BF0F3CF12F01C
:10003000F4CF13F0FACF14F0F5CF15F0F6CF16F099
:10004000F7CF17F000C00EF001C00FF002C010F0A3
:1000500003C011F0F2A830EF00F0F2B257EF00F059
:100060000EC000F00FC001F010C002F011C003F08C
:100070000CC0E9FF07C0EAFF078E08C0E1FF09C016
:10008000E2FF0AC0D9FF0BC0DAFF12C0F3FF13C0B2
:10009000F4FF14C0FAFF15C0F5FF16C0F6FF17C035
:1000A000F7FF045006C0E0FF05C0D8FF1000F29231
:1000B0000A0E195E195202E1640E196E1A80F2924C
:1000C00030EF00F048656C6C6F00949C8B9C080EC0
:1000D000016E00D00000018E0ED0019E2232D8B0F9
:1000E0008B8CD8A08B9C018C06D0019C012EF6D75E
:1000F00000D000008B8C010E006EE96AE92EFED75D
:10010000002EFBD70E0EE96EE92EFED7000001BED1
:10011000E4D701BCEAD712000900F5520CE0F6CF93
:100120001CF0F7CF1DF0F5CF22F0CFDF1CC0F6FF9B
:100130001DC0F7FFF1D733EF01F0EA6A1C0EE96E3C
:10014000EF500DE00A0E016E006A002EFED7012E60
:10015000FBD75F0E006E002EFED7EF2EF3D736EFE3
:1001600001F02350016A225C03E222C000F00CD0AF
:10017000006A080E246E223600362350005CD8B088
:10018000006E0136242EF7D71200200E1DA8300E67
:100190001E6E1CC000F01CAE08D0001E002A00C05D
:1001A0001CF02D0E1E6E1D8E1D8001501CC022F0F5
:1001B000640E236ED6DF00C01CF0300E01241F6ECB
:1001C0001CC022F00A0E236ECCDF300E0024216EFC
:1001D000300E0124206E1EC000F0300E1F5C04E0C3
:1001E0001D821DBE1D8412D01EC01FF0200E1E6E6B
:1001F000300E205C04E01D801DBE1D8207D0D8A4F7
:100200001D8004E11FC020F0200E1F6E1DB405D01C
:100210001DB206D01DB007D009D01EC022F055DF98
:100220001FC022F052DF20C022F04FDF21C022F099
:100230004CDF56EF01F0F86AD09E078EEA6AE96A51
:10024000949C8B8C640E196E1A90C180C182C184FB
:10025000C196956A8C6AF292D00EF212C40EF66EB6
:10026000000EF76E59D719C01CF067D71B501B2A18
:10027000000A05E0010A07E0030A09E00CD0956ACC
:10028000110E8C6E08D0956A220E8C6E04D0956A81
:100290000C0E8C6E1B6A1AA009D01A900C0E226EDE
:1002A00014DF19C01CF0180E1D6E6FD7DCD7000EBE
:0402B000016E0300D8
:020000040030CA
:0E00000000260E0E000181000FC00FE00F4021
:00000001FF
;PIC18F452
;CRC=DE43  CREATED="19-fev-14 08:18"
