:0400000086EF00F097
:08000800046ED8CF05F0E0CF33
:1000100006F00001E9CF0CF0EACF07F0E1CF08F0DD
:10002000E2CF09F0D9CF0AF0DACF0BF0F3CF12F01C
:10003000F4CF13F0FACF14F0F5CF15F0F6CF16F099
:10004000F7CF17F000C00EF001C00FF002C010F0A3
:1000500003C011F0F2A830EF00F0F2B26CEF00F044
:100060000EC000F00FC001F010C002F011C003F08C
:100070000CC0E9FF07C0EAFF078E08C0E1FF09C016
:10008000E2FF0AC0D9FF0BC0DAFF12C0F3FF13C0B2
:10009000F4FF14C0FAFF15C0F5FF16C0F6FF17C035
:1000A000F7FF045006C0E0FF05C0D8FF1000EA6A61
:1000B0001E0EE96EEF500EE0040E016E006A002E77
:1000C000FED7012EFBD7DC0E006E002EFED70000FF
:1000D000EF2EF2D76FEF00F0640E1E6EE8D7F292AB
:1000E0001D80D89019361950080802E0000E01D082
:1000F000010E1E6E195202E0000E01D0010E1E10FC
:1001000002E0010E196EF29230EF00F0F86AD09E14
:10011000078EEA6AE96A949C8B8C010E196E1A6A42
:100120001C6E2C0E1B6E1D901D92000E7E6EC198D3
:10013000C19A7F50E00B7F6E799A79987A6A7B6AD0
:10014000F292F288C00EF2121DA004D01D90956AA2
:0C01500019C08CFFF9D7000E016E0300EF
:020000040030CA
:0E00000000C21E1E008F81000FC00FE00F40D7
:00000001FF
;PIC18F45K20
;CRC=55BD  CREATED="05-fev-14 16:57"
