:0400000042EF01F0DA
:08000800046ED8CF05F0E0CF33
:1000100006F00001E9CF0CF0EACF07F0E1CF08F0DD
:10002000E2CF09F0D9CF0AF0DACF0BF0F3CF12F01C
:10003000F4CF13F0FACF14F0F5CF15F0F6CF16F099
:10004000F7CF17F000C00EF001C00FF002C010F0A3
:1000500003C011F0F2A830EF00F0F2B26AEF00F046
:100060000EC000F00FC001F010C002F011C003F08C
:100070000CC0E9FF07C0EAFF078E08C0E1FF09C016
:10008000E2FF0AC0D9FF0BC0DAFF12C0F3FF13C0B2
:10009000F4FF14C0FAFF15C0F5FF16C0F6FF17C035
:1000A000F7FF045006C0E0FF05C0D8FF1000EA6A61
:1000B000280EE96EEF500DE00A0E016E006A002E68
:1000C000FED7012EFBD75F0E006E002EFED7EF2E5F
:1000D000F3D71200640E286EEADFF292320E1A5E37
:1000E000000E1B5A1B5207E11A50320804E3010E9E
:1000F0001B6EF40E1A6E1D80F29230EF00F00C4869
:10010000656C6C6F0000949C8B9C080E016E00D097
:100110000000018E0ED0019E2732D8B08B8CD8A063
:100120008B9C018C06D0019C012EF6D700D00000DC
:100130008B8C010E006EE96AE92EFED7002EFBD7EC
:100140000E0EE96EE92EFED7000001BEE4D701BC19
:10015000EAD712000900F5520CE0F6CF1EF0F7CFF7
:100160001FF0F5CF27F0CFDF1EC0F6FF1FC0F7FF4F
:10017000F1D75DEF01F0010E1E5CFA0F14E2060FDD
:10018000D5EF00F0210E016E0ED0110E016E0BD0D6
:10019000140E016E08D00C0E016E05D00A0E016E11
:1001A00002D0220E016E61EF01F0E824F76AF73603
:1001B000C50FF66E010EF7220A00F550FA6E080020
:1001C000F550F96E84018A01900196019C01A2010B
:1001D000EACF26F0E9CF25F01F38F009216E21265D
:1001E000E20F226E320F246E1F500F0B22262226A2
:1001F0002426E90F236E232623261E380F0B2326E1
:10020000242623362436241E24361E500F0B242683
:100210002136070E206E0A0E23062426FDE3220651
:100220002326FDE321062226FDE320062126FDE309
:10023000EA6A200EE96E070E2514259CE926240E95
:10024000E95CD8B4258CEF50006E08E125BC06D0DF
:1002500025B813D025B602D0200E03D025862598C8
:10026000300E0026EACF1FF0E9CF1EF000C027F0C5
:100270004ADF1FC0EAFF1EC0E9FFEE5025ACDFD702
:100280008DEF01F0F86AD09E078EEA6AE96A949CC5
:100290008B8C010E1B6EF40E1A6E1C6A1D80C180C1
:1002A000C182C184C196946A8B6AD00EF212F19C0D
:1002B000FE0EF66E000EF76E4DD71C2A1CC01EF007
:1002C0005AD7946A01C08BFF1C50060801E11C6AD2
:1002D0001BC01EF01E2A1E06D8B409D0196AF2BE31
:1002E000198EF29E2868E3DE19BEF28EF4D7196AE1
:1002F000F2BE198EF29E1AC028F0D9DE19BEF28E17
:100300001DA00BD01D900C0E276EFDDE100EE96EA9
:100310001BC01FF01AC01EF05BD7CFD7000E016EB6
:020320000300D8
:020000040030CA
:0E00000000260E0E000181000FC00FE00F4021
:00000001FF
;PIC18F452
;CRC=0062  CREATED="20-fev-14 14:18"
