:040000007DEF00F0A0
:08000800046ED8CF05F0E0CF33
:1000100006F00001E9CF0CF0EACF07F0E1CF08F0DD
:10002000E2CF09F0D9CF0AF0DACF0BF0F3CF12F01C
:10003000F4CF13F0FACF14F0F5CF15F0F6CF16F099
:10004000F7CF17F000C00EF001C00FF002C010F0A3
:1000500003C011F0F2A830EF00F0F2B257EF00F059
:100060000EC000F00FC001F010C002F011C003F08C
:100070000CC0E9FF07C0EAFF078E08C0E1FF09C016
:10008000E2FF0AC0D9FF0BC0DAFF12C0F3FF13C0B2
:10009000F4FF14C0FAFF15C0F5FF16C0F6FF17C035
:1000A000F7FF045006C0E0FF05C0D8FF1000F29231
:1000B000640E1D5E000E1E5A1D50640806E11E529D
:1000C00004E1750E1E6E300E1D6EF29230EF00F0E0
:1000D000060E205E11E3EA6A200EE96EFC0EEF16B2
:1000E000D890EF32EF32EF5007E0030E006E002E93
:1000F000FED700D0EF2EF9D71200F86AD09E078EF7
:10010000EA6AE96A949C8B8C196A1A6A1B6A1C6AEF
:10011000750E1E6E300E1D6E000E7E6EC198C19A59
:100120007F50E00B7F6E799A79987A6A7B6AF292B7
:10013000F288C00EF2121C50060801E11C6A1C5025
:10014000040B006E0030196E19323F0E19161C5048
:10015000020B006ED89000301A6E1C50010B1B6E03
:100160001A501B1402E0000E01D0010E1F6E19522E
:1001700002E0000E01D0010E1F1402E18C9001D0AC
:100180008C8095901B5202E0000E01D0010E1914D4
:100190001A1002E18C9201D08C829592195202E0E1
:1001A000000E01D0010E1B141A1002E18C9401D034
:1001B0008C8495941C2A1EC01FF01F2A1F06D8B4D9
:1001C00003D0206885DFFAD71DC020F081DFB3D7C8
:0601D000000E016E0300A9
:020000040030CA
:0E00000000C21E1E008F81000FC00FE00F40D7
:00000001FF
;PIC18F45K20
;CRC=5875  CREATED="06-fev-14 09:58"
