:04000000ECEF00F031
:08000800046ED8CF05F0E0CF33
:1000100006F00001E9CF0CF0EACF07F0E1CF08F0DD
:10002000E2CF09F0D9CF0AF0DACF0BF0F3CF12F01C
:10003000F4CF13F0FACF14F0F5CF15F0F6CF16F099
:10004000F7CF17F000C00EF001C00FF002C010F0A3
:1000500003C011F0F2AA30EF00F0F2B49FEF00F00D
:10006000F2A836EF00F0F2B276EF00F0F0A83CEF25
:1000700000F0F0B296EF00F00EC000F00FC001F0FB
:1000800010C002F011C003F00CC0E9FF07C0EAFF86
:10009000078E08C0E1FF09C0E2FF0AC0D9FF0BC00C
:1000A000DAFF12C0F3FF13C0F4FF14C0FAFF15C04B
:1000B000F5FF16C0F6FF17C0F7FF045006C0E0FFBB
:1000C00005C0D8FF1000EA6A200EE96EEF500DE07F
:1000D0000A0E016E006A002EFED7012EFBD75F0EBE
:1000E000006E002EFED7EF2EF3D71200640E206EA6
:1000F000EADFF2921B501B2A000A07E0010A08E01F
:10010000030A09E0010A0AE00DD0830ED56E0BD078
:10011000820ED56E08D0810ED56E05D0800ED56EBC
:100120001B6A01D01B6AF2923CEF00F0F092640E61
:10013000206EC9DF1C721C84F0923CEF00F0F29438
:10014000D8901A361A50080802E1010E1A6E946A05
:100150001AC08BFFF2943CEF00F00C4465736C699D
:100160006761646F0000949C8B9C080E016E00D048
:100170000000018E0ED0019E1F32D8B08B8CD8A00B
:100180008B9C018C06D0019C012EF6D700D000007C
:100190008B8C010E006EE96AE92EFED7002EFBD78C
:1001A0000E0EE96EE92EFED7000001BEE4D701BCB9
:1001B000EAD7E5EF00F00900F5520CE0F6CF1DF0AC
:1001C000F7CF1EF0F5CF1FF0CED71DC0F6FF1EC033
:1001D000F7FFF1D728EF01F0F86AD09E078EEA6AA0
:1001E000E96A949C8B8CF40E196E010E1A6E1B6AD0
:1001F0001C801C82C180C182C184C196946A8B6AB2
:10020000860ED56E0B0ED76EDB0ED66EF294F2888C
:10021000F19CF088F198F28AC00EF2121CA20DD067
:100220001CA40AD01C94860ED56E0B0ED76EDB0E66
:10023000D66EF294F28A1B6A0DD01CA40BD01C94CB
:10024000F294F29AD56A5A0EF66E010EF76EB3D793
:0C025000946A8B6AE3D7000E016E030075
:020000040030CA
:0E00000000260E0E000181000FC00FE00F4021
:00000001FF
;PIC18F452
;CRC=9AAA  CREATED="25-fev-14 15:30"
