:040000007BEF00F0A2
:08000800046ED8CF05F0E0CF33
:1000100006F00001E9CF0CF0EACF07F0E1CF08F0DD
:10002000E2CF09F0D9CF0AF0DACF0BF0F3CF12F01C
:10003000F4CF13F0FACF14F0F5CF15F0F6CF16F099
:10004000F7CF17F000C00EF001C00FF002C010F0A3
:1000500003C011F0F2A830EF00F0F2B257EF00F059
:100060000EC000F00FC001F010C002F011C003F08C
:100070000CC0E9FF07C0EAFF078E08C0E1FF09C016
:10008000E2FF0AC0D9FF0BC0DAFF12C0F3FF13C0B2
:10009000F4FF14C0FAFF15C0F5FF16C0F6FF17C035
:1000A000F7FF045006C0E0FF05C0D8FF1000F29231
:1000B000E80E1B5E030E1C5A1B501C1004E1FD0EC3
:1000C0001C6EE80E1B6EF29230EF00F0060E1F5E03
:1000D00011E3EA6A1F0EE96EFC0EEF16D890EF32BC
:1000E000EF32EF5007E0030E006E002EFED700D077
:1000F000EF2EF9D71200F86AD09E078EEA6AE96AF5
:10010000949C8B8C010E196E1A6AFD0E1C6EE80E03
:100110001B6E1D901D92000E7E6EC198C19A7F507D
:10012000E00B7F6E799A79987A6A7B6AF292F2880C
:10013000C00EF212D89019361950080802E1010ECB
:10014000196E956A19C08CFF1CC01EF01E2A1E066F
:10015000D8B403D01F68BADFFAD71BC01FF0B6DFD0
:08016000E9D7000E016E030057
:020000040030CA
:0E00000000C21E1E008F81000FC00FE00F40D7
:00000001FF
;PIC18F45K20
;CRC=5589  CREATED="06-fev-14 10:01"
